{
  "contractName": "Assessment",
  "abi": [
    {
      "inputs": [],
      "name": "balance",
      "outputs": [
        {
          "internalType": "uint256",
          "name": "",
          "type": "uint256"
        }
      ],
      "stateMutability": "view",
      "type": "function",
      "constant": true
    },
    {
      "inputs": [
        {
          "internalType": "uint256",
          "name": "a",
          "type": "uint256"
        }
      ],
      "name": "_require",
      "outputs": [],
      "stateMutability": "pure",
      "type": "function",
      "constant": true
    },
    {
      "inputs": [
        {
          "internalType": "uint256",
          "name": "a",
          "type": "uint256"
        }
      ],
      "name": "_revert",
      "outputs": [],
      "stateMutability": "pure",
      "type": "function",
      "constant": true
    },
    {
      "inputs": [],
      "name": "_Assert",
      "outputs": [],
      "stateMutability": "view",
      "type": "function",
      "constant": true
    }
  ],
  "bytecode": "0x6080604052600a60005534801561001557600080fd5b50610403806100256000396000f3fe608060405234801561001057600080fd5b506004361061004c5760003560e01c80634908b26614610051578063629caaf81461006d5780638e9d4f7914610077578063b69ef8a814610093575b600080fd5b61006b600480360381019061006691906101cc565b6100b1565b005b6100756100f8565b005b610091600480360381019061008c91906101cc565b61010d565b005b61009b61018b565b6040516100a89190610208565b60405180910390f35b600a8111156100f5576040517f08c379a00000000000000000000000000000000000000000000000000000000081526004016100ec90610280565b60405180910390fd5b50565b60008054101561010b5761010a6102a0565b5b565b600a8110610150576040517f08c379a000000000000000000000000000000000000000000000000000000000815260040161014790610341565b60405180910390fd5b6040517f08c379a0000000000000000000000000000000000000000000000000000000008152600401610182906103ad565b60405180910390fd5b60005481565b600080fd5b6000819050919050565b6101a981610196565b81146101b457600080fd5b50565b6000813590506101c6816101a0565b92915050565b6000602082840312156101e2576101e1610191565b5b60006101f0848285016101b7565b91505092915050565b61020281610196565b82525050565b600060208201905061021d60008301846101f9565b92915050565b600082825260208201905092915050565b7f696e53756666696369656e742042616c616e6365000000000000000000000000600082015250565b600061026a601483610223565b915061027582610234565b602082019050919050565b600060208201905081810360008301526102998161025d565b9050919050565b7f4e487b7100000000000000000000000000000000000000000000000000000000600052600160045260246000fd5b7f496e7075742069732067726561746572207468616e206f7220657175616c207460008201527f6f20313000000000000000000000000000000000000000000000000000000000602082015250565b600061032b602483610223565b9150610336826102cf565b604082019050919050565b6000602082019050818103600083015261035a8161031e565b9050919050565b7f496e707574206973206c657373207468616e2031300000000000000000000000600082015250565b6000610397601583610223565b91506103a282610361565b602082019050919050565b600060208201905081810360008301526103c68161038a565b905091905056fea264697066735822122075b6ec1908b85e1ecc46fce1480e9ecd17b5f698401548a22e852bd12f33f49f64736f6c63430008110033",
  "immutableReferences": {},
  "source": "// SPDX-License-Identifier: MIT\r\npragma solidity ^0.8.17;\r\ncontract Assessment{\r\n    uint public balance = 10;\r\n\r\n    function _require(uint a ) pure public {\r\n        require(a<=10,\"inSufficient Balance\");\r\n    }\r\n    function _revert(uint a ) pure public{\r\n        if(a >= 10){\r\n            revert(\"Input is greater than or equal to 10\");\r\n        }else{\r\n            revert(\"Input is less than 10\");\r\n        }\r\n    }\r\n    function _Assert() public view {\r\n\r\n        assert(balance >= 0);\r\n        \r\n    }\r\n}",
  "sourcePath": "C:\\Users\\aashish\\module 2\\mod1\\contracts\\Assessment.sol",
  "compiler": {
    "name": "solc",
    "version": "0.8.17+commit.8df45f5f.Emscripten.clang"
  },
  "schemaVersion": "3.4.16",
  "updatedAt": "2024-07-10T11:31:16.039Z",
  "networkType": "ethereum",
  "devdoc": {
    "kind": "dev",
    "methods": {},
    "version": 1
  },
  "userdoc": {
    "kind": "user",
    "methods": {},
    "version": 1
  }
}